{
  "_format": "hh-sol-artifact-1",
  "contractName": "CampaignContract",
  "sourceName": "contracts/CampaignContract.sol",
  "abi": [
    {
      "inputs": [
        {
          "internalType": "address",
          "name": "_transparency",
          "type": "address"
        },
        {
          "internalType": "address",
          "name": "_givToken",
          "type": "address"
        }
      ],
      "stateMutability": "nonpayable",
      "type": "constructor"
    },
    {
      "anonymous": false,
      "inputs": [
        {
          "indexed": true,
          "internalType": "uint256",
          "name": "campaignId",
          "type": "uint256"
        }
      ],
      "name": "CampaignCancelled",
      "type": "event"
    },
    {
      "anonymous": false,
      "inputs": [
        {
          "indexed": true,
          "internalType": "uint256",
          "name": "id",
          "type": "uint256"
        },
        {
          "indexed": false,
          "internalType": "string",
          "name": "title",
          "type": "string"
        },
        {
          "indexed": true,
          "internalType": "address",
          "name": "charity",
          "type": "address"
        },
        {
          "indexed": false,
          "internalType": "uint256",
          "name": "goal",
          "type": "uint256"
        },
        {
          "indexed": false,
          "internalType": "uint256",
          "name": "deadline",
          "type": "uint256"
        }
      ],
      "name": "CampaignCreated",
      "type": "event"
    },
    {
      "anonymous": false,
      "inputs": [
        {
          "indexed": true,
          "internalType": "uint256",
          "name": "campaignId",
          "type": "uint256"
        },
        {
          "indexed": true,
          "internalType": "address",
          "name": "donor",
          "type": "address"
        },
        {
          "indexed": false,
          "internalType": "uint256",
          "name": "amount",
          "type": "uint256"
        }
      ],
      "name": "DonationMade",
      "type": "event"
    },
    {
      "anonymous": false,
      "inputs": [
        {
          "indexed": true,
          "internalType": "uint256",
          "name": "campaignId",
          "type": "uint256"
        },
        {
          "indexed": false,
          "internalType": "uint256",
          "name": "amount",
          "type": "uint256"
        }
      ],
      "name": "FundsReleased",
      "type": "event"
    },
    {
      "anonymous": false,
      "inputs": [
        {
          "indexed": true,
          "internalType": "uint256",
          "name": "campaignId",
          "type": "uint256"
        },
        {
          "indexed": true,
          "internalType": "address",
          "name": "donor",
          "type": "address"
        },
        {
          "indexed": false,
          "internalType": "uint256",
          "name": "amount",
          "type": "uint256"
        }
      ],
      "name": "RefundIssued",
      "type": "event"
    },
    {
      "inputs": [],
      "name": "GIV_REWARD_RATE",
      "outputs": [
        {
          "internalType": "uint256",
          "name": "",
          "type": "uint256"
        }
      ],
      "stateMutability": "view",
      "type": "function"
    },
    {
      "inputs": [],
      "name": "campaignCount",
      "outputs": [
        {
          "internalType": "uint256",
          "name": "",
          "type": "uint256"
        }
      ],
      "stateMutability": "view",
      "type": "function"
    },
    {
      "inputs": [
        {
          "internalType": "uint256",
          "name": "",
          "type": "uint256"
        }
      ],
      "name": "campaigns",
      "outputs": [
        {
          "internalType": "uint256",
          "name": "id",
          "type": "uint256"
        },
        {
          "internalType": "string",
          "name": "title",
          "type": "string"
        },
        {
          "internalType": "string",
          "name": "description",
          "type": "string"
        },
        {
          "internalType": "string",
          "name": "category",
          "type": "string"
        },
        {
          "internalType": "uint256",
          "name": "goal",
          "type": "uint256"
        },
        {
          "internalType": "uint256",
          "name": "deadline",
          "type": "uint256"
        },
        {
          "internalType": "uint256",
          "name": "raised",
          "type": "uint256"
        },
        {
          "internalType": "uint256",
          "name": "donorCount",
          "type": "uint256"
        },
        {
          "internalType": "address payable",
          "name": "charity",
          "type": "address"
        },
        {
          "internalType": "bool",
          "name": "released",
          "type": "bool"
        },
        {
          "internalType": "bool",
          "name": "cancelled",
          "type": "bool"
        },
        {
          "internalType": "string",
          "name": "imageUrl",
          "type": "string"
        }
      ],
      "stateMutability": "view",
      "type": "function"
    },
    {
      "inputs": [
        {
          "internalType": "uint256",
          "name": "id",
          "type": "uint256"
        }
      ],
      "name": "cancelCampaign",
      "outputs": [],
      "stateMutability": "nonpayable",
      "type": "function"
    },
    {
      "inputs": [
        {
          "internalType": "string",
          "name": "title",
          "type": "string"
        },
        {
          "internalType": "string",
          "name": "description",
          "type": "string"
        },
        {
          "internalType": "string",
          "name": "category",
          "type": "string"
        },
        {
          "internalType": "uint256",
          "name": "goal",
          "type": "uint256"
        },
        {
          "internalType": "uint256",
          "name": "durationDays",
          "type": "uint256"
        },
        {
          "internalType": "string",
          "name": "imageUrl",
          "type": "string"
        }
      ],
      "name": "createCampaign",
      "outputs": [],
      "stateMutability": "nonpayable",
      "type": "function"
    },
    {
      "inputs": [
        {
          "internalType": "uint256",
          "name": "amount",
          "type": "uint256"
        }
      ],
      "name": "depositGIV",
      "outputs": [],
      "stateMutability": "nonpayable",
      "type": "function"
    },
    {
      "inputs": [
        {
          "internalType": "uint256",
          "name": "id",
          "type": "uint256"
        }
      ],
      "name": "donate",
      "outputs": [],
      "stateMutability": "payable",
      "type": "function"
    },
    {
      "inputs": [
        {
          "internalType": "uint256",
          "name": "",
          "type": "uint256"
        },
        {
          "internalType": "address",
          "name": "",
          "type": "address"
        }
      ],
      "name": "donations",
      "outputs": [
        {
          "internalType": "uint256",
          "name": "",
          "type": "uint256"
        }
      ],
      "stateMutability": "view",
      "type": "function"
    },
    {
      "inputs": [],
      "name": "getAllCampaigns",
      "outputs": [
        {
          "components": [
            {
              "internalType": "uint256",
              "name": "id",
              "type": "uint256"
            },
            {
              "internalType": "string",
              "name": "title",
              "type": "string"
            },
            {
              "internalType": "string",
              "name": "description",
              "type": "string"
            },
            {
              "internalType": "string",
              "name": "category",
              "type": "string"
            },
            {
              "internalType": "uint256",
              "name": "goal",
              "type": "uint256"
            },
            {
              "internalType": "uint256",
              "name": "deadline",
              "type": "uint256"
            },
            {
              "internalType": "uint256",
              "name": "raised",
              "type": "uint256"
            },
            {
              "internalType": "uint256",
              "name": "donorCount",
              "type": "uint256"
            },
            {
              "internalType": "address payable",
              "name": "charity",
              "type": "address"
            },
            {
              "internalType": "bool",
              "name": "released",
              "type": "bool"
            },
            {
              "internalType": "bool",
              "name": "cancelled",
              "type": "bool"
            },
            {
              "internalType": "string",
              "name": "imageUrl",
              "type": "string"
            }
          ],
          "internalType": "struct CampaignContract.Campaign[]",
          "name": "",
          "type": "tuple[]"
        }
      ],
      "stateMutability": "view",
      "type": "function"
    },
    {
      "inputs": [
        {
          "internalType": "uint256",
          "name": "id",
          "type": "uint256"
        }
      ],
      "name": "getCampaign",
      "outputs": [
        {
          "components": [
            {
              "internalType": "uint256",
              "name": "id",
              "type": "uint256"
            },
            {
              "internalType": "string",
              "name": "title",
              "type": "string"
            },
            {
              "internalType": "string",
              "name": "description",
              "type": "string"
            },
            {
              "internalType": "string",
              "name": "category",
              "type": "string"
            },
            {
              "internalType": "uint256",
              "name": "goal",
              "type": "uint256"
            },
            {
              "internalType": "uint256",
              "name": "deadline",
              "type": "uint256"
            },
            {
              "internalType": "uint256",
              "name": "raised",
              "type": "uint256"
            },
            {
              "internalType": "uint256",
              "name": "donorCount",
              "type": "uint256"
            },
            {
              "internalType": "address payable",
              "name": "charity",
              "type": "address"
            },
            {
              "internalType": "bool",
              "name": "released",
              "type": "bool"
            },
            {
              "internalType": "bool",
              "name": "cancelled",
              "type": "bool"
            },
            {
              "internalType": "string",
              "name": "imageUrl",
              "type": "string"
            }
          ],
          "internalType": "struct CampaignContract.Campaign",
          "name": "",
          "type": "tuple"
        }
      ],
      "stateMutability": "view",
      "type": "function"
    },
    {
      "inputs": [
        {
          "internalType": "uint256",
          "name": "id",
          "type": "uint256"
        }
      ],
      "name": "getDonors",
      "outputs": [
        {
          "internalType": "address[]",
          "name": "",
          "type": "address[]"
        }
      ],
      "stateMutability": "view",
      "type": "function"
    },
    {
      "inputs": [
        {
          "internalType": "uint256",
          "name": "id",
          "type": "uint256"
        }
      ],
      "name": "getProgress",
      "outputs": [
        {
          "internalType": "uint256",
          "name": "percent",
          "type": "uint256"
        }
      ],
      "stateMutability": "view",
      "type": "function"
    },
    {
      "inputs": [],
      "name": "givToken",
      "outputs": [
        {
          "internalType": "contract GIVToken",
          "name": "",
          "type": "address"
        }
      ],
      "stateMutability": "view",
      "type": "function"
    },
    {
      "inputs": [
        {
          "internalType": "uint256",
          "name": "id",
          "type": "uint256"
        }
      ],
      "name": "isActive",
      "outputs": [
        {
          "internalType": "bool",
          "name": "",
          "type": "bool"
        }
      ],
      "stateMutability": "view",
      "type": "function"
    },
    {
      "inputs": [],
      "name": "owner",
      "outputs": [
        {
          "internalType": "address",
          "name": "",
          "type": "address"
        }
      ],
      "stateMutability": "view",
      "type": "function"
    },
    {
      "inputs": [
        {
          "internalType": "uint256",
          "name": "id",
          "type": "uint256"
        }
      ],
      "name": "refund",
      "outputs": [],
      "stateMutability": "nonpayable",
      "type": "function"
    },
    {
      "inputs": [
        {
          "internalType": "uint256",
          "name": "id",
          "type": "uint256"
        }
      ],
      "name": "releaseFunds",
      "outputs": [],
      "stateMutability": "nonpayable",
      "type": "function"
    },
    {
      "inputs": [],
      "name": "transparency",
      "outputs": [
        {
          "internalType": "contract TransparencyContract",
          "name": "",
          "type": "address"
        }
      ],
      "stateMutability": "view",
      "type": "function"
    },
    {
      "stateMutability": "payable",
      "type": "receive"
    }
  ],
  "bytecode": "0x60806040523480156200001157600080fd5b5060405162002a2238038062002a2283398101604081905262000034916200008e565b600180546001600160a01b03199081163317909155600580546001600160a01b0394851690831617905560068054929093169116179055620000c6565b80516001600160a01b03811681146200008957600080fd5b919050565b60008060408385031215620000a257600080fd5b620000ad8362000071565b9150620000bd6020840162000071565b90509250929050565b61294c80620000d66000396000f3fe60806040526004361061010d5760003560e01c80637274e30d116100955780638da5cb5b116100645780638da5cb5b14610315578063e11efa0614610335578063ee1554a314610355578063f14faf6f1461038d578063f9177d83146103a057600080fd5b80637274e30d1461028d5780637ccd12d5146102a357806382afd23b146102c357806386cdf604146102f357600080fd5b806345598b4a116100dc57806345598b4a146101c85780634d68282f146101e85780635598f8cc146102085780635cd8d470146102355780636e5add481461026d57600080fd5b806306f01e7414610119578063141961bc14610141578063278ecde114610179578063295165111461019b57600080fd5b3661011457005b600080fd5b34801561012557600080fd5b5061012e606481565b6040519081526020015b60405180910390f35b34801561014d57600080fd5b5061016161015c366004612257565b6103c0565b6040516101389c9b9a999897969594939291906122b6565b34801561018557600080fd5b50610199610194366004612257565b610653565b005b3480156101a757600080fd5b506101bb6101b6366004612257565b6108f5565b604051610138919061235e565b3480156101d457600080fd5b506101996101e3366004612257565b610992565b3480156101f457600080fd5b50610199610203366004612257565b610b15565b34801561021457600080fd5b50610228610223366004612257565b610dfa565b6040516101389190612483565b34801561024157600080fd5b50600654610255906001600160a01b031681565b6040516001600160a01b039091168152602001610138565b34801561027957600080fd5b50610199610288366004612540565b61110d565b34801561029957600080fd5b5061012e60005481565b3480156102af57600080fd5b50600554610255906001600160a01b031681565b3480156102cf57600080fd5b506102e36102de366004612257565b6113a0565b6040519015158152602001610138565b3480156102ff57600080fd5b506103086116d6565b60405161013891906125ff565b34801561032157600080fd5b50600154610255906001600160a01b031681565b34801561034157600080fd5b5061012e610350366004612257565b611a4c565b34801561036157600080fd5b5061012e610370366004612661565b600360209081526000928352604080842090915290825290205481565b61019961039b366004612257565b611da1565b3480156103ac57600080fd5b506101996103bb366004612257565b612124565b600260205260009081526040902080546001820180549192916103e29061269d565b80601f016020809104026020016040519081016040528092919081815260200182805461040e9061269d565b801561045b5780601f106104305761010080835404028352916020019161045b565b820191906000526020600020905b81548152906001019060200180831161043e57829003601f168201915b5050505050908060020180546104709061269d565b80601f016020809104026020016040519081016040528092919081815260200182805461049c9061269d565b80156104e95780601f106104be576101008083540402835291602001916104e9565b820191906000526020600020905b8154815290600101906020018083116104cc57829003601f168201915b5050505050908060030180546104fe9061269d565b80601f016020809104026020016040519081016040528092919081815260200182805461052a9061269d565b80156105775780601f1061054c57610100808354040283529160200191610577565b820191906000526020600020905b81548152906001019060200180831161055a57829003601f168201915b505050600484015460058501546006860154600787015460088801546009890180549899959894975092955090936001600160a01b0382169360ff600160a01b8404811694600160a81b9094041692906105d09061269d565b80601f01602080910402602001604051908101604052809291908181526020018280546105fc9061269d565b80156106495780601f1061061e57610100808354040283529160200191610649565b820191906000526020600020905b81548152906001019060200180831161062c57829003601f168201915b505050505090508c565b8060008111801561066657506000548111155b61068b5760405162461bcd60e51b8152600401610682906126d1565b60405180910390fd5b600082815260026020526040902060058101544211806106b657506008810154600160a81b900460ff165b6106fa5760405162461bcd60e51b815260206004820152601560248201527443616d706169676e207374696c6c2061637469766560581b6044820152606401610682565b6008810154600160a01b900460ff161561074f5760405162461bcd60e51b8152602060048201526016602482015275119d5b991cc8185b1c9958591e481c995b19585cd95960521b6044820152606401610682565b6000838152600360209081526040808320338452909152902054806107ae5760405162461bcd60e51b8152602060048201526015602482015274139bc8191bdb985d1a5bdb881d1bc81c99599d5b99605a1b6044820152606401610682565b60008481526003602090815260408083203380855292528083208390555183908381818185875af1925050503d8060008114610806576040519150601f19603f3d011682016040523d82523d6000602084013e61080b565b606091505b505090508061084c5760405162461bcd60e51b815260206004820152600d60248201526c1499599d5b990819985a5b1959609a1b6044820152606401610682565b60055460405163e91de63960e01b815260048101879052336024820152604481018490526001600160a01b039091169063e91de63990606401600060405180830381600087803b15801561089f57600080fd5b505af11580156108b3573d6000803e3d6000fd5b50506040518481523392508791507f7a482fdeb6bc9a1376f597068a214a7a39472bb2eff1b8cad21ba04f49ddca1b9060200160405180910390a35050505050565b60608160008111801561090a57506000548111155b6109265760405162461bcd60e51b8152600401610682906126d1565b6000838152600460209081526040918290208054835181840281018401909452808452909183018282801561098457602002820191906000526020600020905b81546001600160a01b03168152600190910190602001808311610966575b505050505091505b50919050565b806000811180156109a557506000548111155b6109c15760405162461bcd60e51b8152600401610682906126d1565b600082815260026020526040902060088101546001600160a01b03163314806109f457506001546001600160a01b031633145b610a315760405162461bcd60e51b815260206004820152600e60248201526d139bdd08185d5d1a1bdc9a5e995960921b6044820152606401610682565b6008810154600160a01b900460ff1615610a805760405162461bcd60e51b815260206004820152601060248201526f105b1c9958591e481c995b19585cd95960821b6044820152606401610682565b6008810154600160a81b900460ff1615610ad05760405162461bcd60e51b8152602060048201526011602482015270105b1c9958591e4818d85b98d95b1b1959607a1b6044820152606401610682565b60088101805460ff60a81b1916600160a81b17905560405183907f403b6718db13878ac16c27decb08f09d3a10f116c7c25af575ff5bfbc11ae9e690600090a2505050565b80600081118015610b2857506000548111155b610b445760405162461bcd60e51b8152600401610682906126d1565b600082815260026020526040902060088101546001600160a01b0316331480610b7757506001546001600160a01b031633145b610bb45760405162461bcd60e51b815260206004820152600e60248201526d139bdd08185d5d1a1bdc9a5e995960921b6044820152606401610682565b806004015481600601541015610bff5760405162461bcd60e51b815260206004820152601060248201526f11dbd85b081b9bdd081c995858da195960821b6044820152606401610682565b6008810154600160a01b900460ff1615610c4e5760405162461bcd60e51b815260206004820152601060248201526f105b1c9958591e481c995b19585cd95960821b6044820152606401610682565b6008810154600160a81b900460ff1615610c965760405162461bcd60e51b815260206004820152600960248201526810d85b98d95b1b195960ba1b6044820152606401610682565b600881018054600160a01b60ff60a01b19821617909155600682015460405190916000916001600160a01b039091169083908381818185875af1925050503d8060008114610d00576040519150601f19603f3d011682016040523d82523d6000602084013e610d05565b606091505b5050905080610d485760405162461bcd60e51b815260206004820152600f60248201526e151c985b9cd9995c8819985a5b1959608a1b6044820152606401610682565b6005546008840154604051638bb3af9160e01b8152600481018890526001600160a01b03918216602482015260448101859052911690638bb3af9190606401600060405180830381600087803b158015610da157600080fd5b505af1158015610db5573d6000803e3d6000fd5b50505050847f80230996023d69b50793fa73f1919127c9d8e741d3989743c479169f22e7a28883604051610deb91815260200190565b60405180910390a25050505050565b610e026121e9565b81600081118015610e1557506000548111155b610e315760405162461bcd60e51b8152600401610682906126d1565b600260008481526020019081526020016000206040518061018001604052908160008201548152602001600182018054610e6a9061269d565b80601f0160208091040260200160405190810160405280929190818152602001828054610e969061269d565b8015610ee35780601f10610eb857610100808354040283529160200191610ee3565b820191906000526020600020905b815481529060010190602001808311610ec657829003601f168201915b50505050508152602001600282018054610efc9061269d565b80601f0160208091040260200160405190810160405280929190818152602001828054610f289061269d565b8015610f755780601f10610f4a57610100808354040283529160200191610f75565b820191906000526020600020905b815481529060010190602001808311610f5857829003601f168201915b50505050508152602001600382018054610f8e9061269d565b80601f0160208091040260200160405190810160405280929190818152602001828054610fba9061269d565b80156110075780601f10610fdc57610100808354040283529160200191611007565b820191906000526020600020905b815481529060010190602001808311610fea57829003601f168201915b50505091835250506004820154602082015260058201546040820152600682015460608201526007820154608082015260088201546001600160a01b03811660a083015260ff600160a01b82048116151560c0840152600160a81b90910416151560e0820152600982018054610100909201916110839061269d565b80601f01602080910402602001604051908101604052809291908181526020018280546110af9061269d565b80156110fc5780601f106110d1576101008083540402835291602001916110fc565b820191906000526020600020905b8154815290600101906020018083116110df57829003601f168201915b505050505081525050915050919050565b600086511161114f5760405162461bcd60e51b815260206004820152600e60248201526d151a5d1b19481c995c5d5a5c995960921b6044820152606401610682565b600083116111925760405162461bcd60e51b815260206004820152601060248201526f0476f616c206d757374206265203e20360841b6044820152606401610682565b6000821180156111a4575061016d8211155b6111e35760405162461bcd60e51b815260206004820152601060248201526f24b73b30b634b210323ab930ba34b7b760811b6044820152606401610682565b6000805490806111f283612713565b9091555060009050611207836201518061272c565b6112119042612749565b60408051610180810182526000805480835260208084018d81528486018d9052606085018c9052608085018b905260a0850187905260c0850184905260e08501849052336101008601526101208501849052610140850184905261016085018990529183526002905292902081518155915192935091600182019061129690826127ab565b50604082015160028201906112ab90826127ab565b50606082015160038201906112c090826127ab565b506080820151600482015560a0820151600582015560c0820151600682015560e082015160078201556101008201516008820180546101208501516101408601511515600160a81b0260ff60a81b19911515600160a01b026001600160a81b03199093166001600160a01b03909516949094179190911716919091179055610160820151600982019061135390826127ab565b50506000546040513392507f2e4be7f0a0275b06869815699165e220352ac35bdea8c927565a098fa77dffb69061138f908b908990879061286b565b60405180910390a350505050505050565b6000816000811180156113b557506000548111155b6113d15760405162461bcd60e51b8152600401610682906126d1565b600060026000858152602001908152602001600020604051806101800160405290816000820154815260200160018201805461140c9061269d565b80601f01602080910402602001604051908101604052809291908181526020018280546114389061269d565b80156114855780601f1061145a57610100808354040283529160200191611485565b820191906000526020600020905b81548152906001019060200180831161146857829003601f168201915b5050505050815260200160028201805461149e9061269d565b80601f01602080910402602001604051908101604052809291908181526020018280546114ca9061269d565b80156115175780601f106114ec57610100808354040283529160200191611517565b820191906000526020600020905b8154815290600101906020018083116114fa57829003601f168201915b505050505081526020016003820180546115309061269d565b80601f016020809104026020016040519081016040528092919081815260200182805461155c9061269d565b80156115a95780601f1061157e576101008083540402835291602001916115a9565b820191906000526020600020905b81548152906001019060200180831161158c57829003601f168201915b50505091835250506004820154602082015260058201546040820152600682015460608201526007820154608082015260088201546001600160a01b03811660a083015260ff600160a01b82048116151560c0840152600160a81b90910416151560e0820152600982018054610100909201916116259061269d565b80601f01602080910402602001604051908101604052809291908181526020018280546116519061269d565b801561169e5780601f106116735761010080835404028352916020019161169e565b820191906000526020600020905b81548152906001019060200180831161168157829003601f168201915b50505050508152505090508061014001511580156116bf5750806101200151155b80156116ce57508060a0015142105b949350505050565b60606000805467ffffffffffffffff8111156116f4576116f461249d565b60405190808252806020026020018201604052801561172d57816020015b61171a6121e9565b8152602001906001900390816117125790505b50905060015b600054811161098c576002600082815260200190815260200160002060405180610180016040529081600082015481526020016001820180546117759061269d565b80601f01602080910402602001604051908101604052809291908181526020018280546117a19061269d565b80156117ee5780601f106117c3576101008083540402835291602001916117ee565b820191906000526020600020905b8154815290600101906020018083116117d157829003601f168201915b505050505081526020016002820180546118079061269d565b80601f01602080910402602001604051908101604052809291908181526020018280546118339061269d565b80156118805780601f1061185557610100808354040283529160200191611880565b820191906000526020600020905b81548152906001019060200180831161186357829003601f168201915b505050505081526020016003820180546118999061269d565b80601f01602080910402602001604051908101604052809291908181526020018280546118c59061269d565b80156119125780601f106118e757610100808354040283529160200191611912565b820191906000526020600020905b8154815290600101906020018083116118f557829003601f168201915b50505091835250506004820154602082015260058201546040820152600682015460608201526007820154608082015260088201546001600160a01b03811660a083015260ff600160a01b82048116151560c0840152600160a81b90910416151560e08201526009820180546101009092019161198e9061269d565b80601f01602080910402602001604051908101604052809291908181526020018280546119ba9061269d565b8015611a075780601f106119dc57610100808354040283529160200191611a07565b820191906000526020600020905b8154815290600101906020018083116119ea57829003601f168201915b50505050508152505082600183611a1e9190612890565b81518110611a2e57611a2e6128a3565b60200260200101819052508080611a4490612713565b915050611733565b600081600081118015611a6157506000548111155b611a7d5760405162461bcd60e51b8152600401610682906126d1565b6000600260008581526020019081526020016000206040518061018001604052908160008201548152602001600182018054611ab89061269d565b80601f0160208091040260200160405190810160405280929190818152602001828054611ae49061269d565b8015611b315780601f10611b0657610100808354040283529160200191611b31565b820191906000526020600020905b815481529060010190602001808311611b1457829003601f168201915b50505050508152602001600282018054611b4a9061269d565b80601f0160208091040260200160405190810160405280929190818152602001828054611b769061269d565b8015611bc35780601f10611b9857610100808354040283529160200191611bc3565b820191906000526020600020905b815481529060010190602001808311611ba657829003601f168201915b50505050508152602001600382018054611bdc9061269d565b80601f0160208091040260200160405190810160405280929190818152602001828054611c089061269d565b8015611c555780601f10611c2a57610100808354040283529160200191611c55565b820191906000526020600020905b815481529060010190602001808311611c3857829003601f168201915b50505091835250506004820154602082015260058201546040820152600682015460608201526007820154608082015260088201546001600160a01b03811660a083015260ff600160a01b82048116151560c0840152600160a81b90910416151560e082015260098201805461010090920191611cd19061269d565b80601f0160208091040260200160405190810160405280929190818152602001828054611cfd9061269d565b8015611d4a5780601f10611d1f57610100808354040283529160200191611d4a565b820191906000526020600020905b815481529060010190602001808311611d2d57829003601f168201915b50505050508152505090508060800151600003611d6b57600092505061098c565b608081015160c0820151611d8090606461272c565b611d8a91906128b9565b92506064831115611d9a57606492505b5050919050565b80600081118015611db457506000548111155b611dd05760405162461bcd60e51b8152600401610682906126d1565b60008281526002602052604090206008810154600160a81b900460ff1615611e2f5760405162461bcd60e51b815260206004820152601260248201527110d85b5c185a59db8818d85b98d95b1b195960721b6044820152606401610682565b80600501544210611e735760405162461bcd60e51b815260206004820152600e60248201526d10d85b5c185a59db88195b99195960921b6044820152606401610682565b60003411611eb85760405162461bcd60e51b81526020600482015260126024820152710416d6f756e74206d757374206265203e20360741b6044820152606401610682565b60008381526003602090815260408083203384529091528120549003611f1d576000838152600460209081526040822080546001810182559083529082200180546001600160a01b0319163317905560078201805491611f1783612713565b91905055505b34816006016000828254611f319190612749565b9091555050600083815260036020908152604080832033845290915281208054349290611f5f908490612749565b9091555060009050670de0b6b3a7640000611f7b60643461272c565b611f8591906128b9565b905060008111801561200157506006546040516370a0823160e01b815230600482015282916001600160a01b0316906370a0823190602401602060405180830381865afa158015611fda573d6000803e3d6000fd5b505050506040513d601f19601f82011682018060405250810190611ffe91906128db565b10155b1561207d5760065460405163a9059cbb60e01b8152336004820152602481018390526001600160a01b039091169063a9059cbb906044016020604051808303816000875af1158015612057573d6000803e3d6000fd5b505050506040513d601f19601f8201168201806040525081019061207b91906128f4565b505b6005546040516349829a0160e01b8152600481018690523360248201523460448201526001600160a01b03909116906349829a0190606401600060405180830381600087803b1580156120cf57600080fd5b505af11580156120e3573d6000803e3d6000fd5b50506040513481523392508691507fe555da28bdb778f65d22794d88927ebaeca03f7de9d1b7d39245bc8fb5ca078a9060200160405180910390a350505050565b6001546001600160a01b0316331461216a5760405162461bcd60e51b81526020600482015260096024820152682737ba1037bbb732b960b91b6044820152606401610682565b6006546040516323b872dd60e01b8152336004820152306024820152604481018390526001600160a01b03909116906323b872dd906064016020604051808303816000875af11580156121c1573d6000803e3d6000fd5b505050506040513d601f19601f820116820180604052508101906121e591906128f4565b5050565b604051806101800160405280600081526020016060815260200160608152602001606081526020016000815260200160008152602001600081526020016000815260200160006001600160a01b03168152602001600015158152602001600015158152602001606081525090565b60006020828403121561226957600080fd5b5035919050565b6000815180845260005b818110156122965760208185018101518683018201520161227a565b506000602082860101526020601f19601f83011685010191505092915050565b60006101808e83528060208401526122d08184018f612270565b905082810360408401526122e4818e612270565b905082810360608401526122f8818d612270565b608084018c905260a084018b905260c084018a905260e084018990526001600160a01b038816610100850152861515610120850152851515610140850152905082810361016084015261234b8185612270565b9f9e505050505050505050505050505050565b6020808252825182820181905260009190848201906040850190845b8181101561239f5783516001600160a01b03168352928401929184019160010161237a565b50909695505050505050565b60006101808251845260208301518160208601526123cb82860182612270565b915050604083015184820360408601526123e58282612270565b915050606083015184820360608601526123ff8282612270565b9150506080830151608085015260a083015160a085015260c083015160c085015260e083015160e085015261010080840151612445828701826001600160a01b03169052565b5050610120838101511515908501526101408084015115159085015261016080840151858303828701526124798382612270565b9695505050505050565b60208152600061249660208301846123ab565b9392505050565b634e487b7160e01b600052604160045260246000fd5b600082601f8301126124c457600080fd5b813567ffffffffffffffff808211156124df576124df61249d565b604051601f8301601f19908116603f011681019082821181831017156125075761250761249d565b8160405283815286602085880101111561252057600080fd5b836020870160208301376000602085830101528094505050505092915050565b60008060008060008060c0878903121561255957600080fd5b863567ffffffffffffffff8082111561257157600080fd5b61257d8a838b016124b3565b9750602089013591508082111561259357600080fd5b61259f8a838b016124b3565b965060408901359150808211156125b557600080fd5b6125c18a838b016124b3565b9550606089013594506080890135935060a08901359150808211156125e557600080fd5b506125f289828a016124b3565b9150509295509295509295565b6000602080830181845280855180835260408601915060408160051b870101925083870160005b8281101561265457603f198886030184526126428583516123ab565b94509285019290850190600101612626565b5092979650505050505050565b6000806040838503121561267457600080fd5b8235915060208301356001600160a01b038116811461269257600080fd5b809150509250929050565b600181811c908216806126b157607f821691505b60208210810361098c57634e487b7160e01b600052602260045260246000fd5b60208082526012908201527110d85b5c185a59db881b9bdd08199bdd5b9960721b604082015260600190565b634e487b7160e01b600052601160045260246000fd5b600060018201612725576127256126fd565b5060010190565b8082028115828204841417612743576127436126fd565b92915050565b80820180821115612743576127436126fd565b601f8211156127a657600081815260208120601f850160051c810160208610156127835750805b601f850160051c820191505b818110156127a25782815560010161278f565b5050505b505050565b815167ffffffffffffffff8111156127c5576127c561249d565b6127d9816127d3845461269d565b8461275c565b602080601f83116001811461280e57600084156127f65750858301515b600019600386901b1c1916600185901b1785556127a2565b600085815260208120601f198616915b8281101561283d5788860151825594840194600190910190840161281e565b508582101561285b5787850151600019600388901b60f8161c191681555b5050505050600190811b01905550565b60608152600061287e6060830186612270565b60208301949094525060400152919050565b81810381811115612743576127436126fd565b634e487b7160e01b600052603260045260246000fd5b6000826128d657634e487b7160e01b600052601260045260246000fd5b500490565b6000602082840312156128ed57600080fd5b5051919050565b60006020828403121561290657600080fd5b8151801515811461249657600080fdfea264697066735822122009b4ca74f87c9557ab6f68c2e207eac825b12fb01949fbef161d62db72e0d9c164736f6c63430008140033",
  "linkReferences": {},
  "deployedLinkReferences": {}
}