{
  "_format": "hh-sol-artifact-1",
  "contractName": "GIVToken",
  "sourceName": "contracts/GIVToken.sol",
  "abi": [
    {
      "inputs": [],
      "stateMutability": "nonpayable",
      "type": "constructor"
    },
    {
      "inputs": [
        {
          "internalType": "address",
          "name": "spender",
          "type": "address"
        },
        {
          "internalType": "uint256",
          "name": "allowance",
          "type": "uint256"
        },
        {
          "internalType": "uint256",
          "name": "needed",
          "type": "uint256"
        }
      ],
      "name": "ERC20InsufficientAllowance",
      "type": "error"
    },
    {
      "inputs": [
        {
          "internalType": "address",
          "name": "sender",
          "type": "address"
        },
        {
          "internalType": "uint256",
          "name": "balance",
          "type": "uint256"
        },
        {
          "internalType": "uint256",
          "name": "needed",
          "type": "uint256"
        }
      ],
      "name": "ERC20InsufficientBalance",
      "type": "error"
    },
    {
      "inputs": [
        {
          "internalType": "address",
          "name": "approver",
          "type": "address"
        }
      ],
      "name": "ERC20InvalidApprover",
      "type": "error"
    },
    {
      "inputs": [
        {
          "internalType": "address",
          "name": "receiver",
          "type": "address"
        }
      ],
      "name": "ERC20InvalidReceiver",
      "type": "error"
    },
    {
      "inputs": [
        {
          "internalType": "address",
          "name": "sender",
          "type": "address"
        }
      ],
      "name": "ERC20InvalidSender",
      "type": "error"
    },
    {
      "inputs": [
        {
          "internalType": "address",
          "name": "spender",
          "type": "address"
        }
      ],
      "name": "ERC20InvalidSpender",
      "type": "error"
    },
    {
      "inputs": [
        {
          "internalType": "address",
          "name": "owner",
          "type": "address"
        }
      ],
      "name": "OwnableInvalidOwner",
      "type": "error"
    },
    {
      "inputs": [
        {
          "internalType": "address",
          "name": "account",
          "type": "address"
        }
      ],
      "name": "OwnableUnauthorizedAccount",
      "type": "error"
    },
    {
      "anonymous": false,
      "inputs": [
        {
          "indexed": true,
          "internalType": "address",
          "name": "owner",
          "type": "address"
        },
        {
          "indexed": true,
          "internalType": "address",
          "name": "spender",
          "type": "address"
        },
        {
          "indexed": false,
          "internalType": "uint256",
          "name": "value",
          "type": "uint256"
        }
      ],
      "name": "Approval",
      "type": "event"
    },
    {
      "anonymous": false,
      "inputs": [
        {
          "indexed": true,
          "internalType": "address",
          "name": "previousOwner",
          "type": "address"
        },
        {
          "indexed": true,
          "internalType": "address",
          "name": "newOwner",
          "type": "address"
        }
      ],
      "name": "OwnershipTransferred",
      "type": "event"
    },
    {
      "anonymous": false,
      "inputs": [
        {
          "indexed": true,
          "internalType": "address",
          "name": "to",
          "type": "address"
        },
        {
          "indexed": false,
          "internalType": "uint256",
          "name": "amount",
          "type": "uint256"
        }
      ],
      "name": "TokensMinted",
      "type": "event"
    },
    {
      "anonymous": false,
      "inputs": [
        {
          "indexed": true,
          "internalType": "address",
          "name": "from",
          "type": "address"
        },
        {
          "indexed": true,
          "internalType": "address",
          "name": "to",
          "type": "address"
        },
        {
          "indexed": false,
          "internalType": "uint256",
          "name": "value",
          "type": "uint256"
        }
      ],
      "name": "Transfer",
      "type": "event"
    },
    {
      "inputs": [],
      "name": "MAX_SUPPLY",
      "outputs": [
        {
          "internalType": "uint256",
          "name": "",
          "type": "uint256"
        }
      ],
      "stateMutability": "view",
      "type": "function"
    },
    {
      "inputs": [
        {
          "internalType": "address",
          "name": "owner",
          "type": "address"
        },
        {
          "internalType": "address",
          "name": "spender",
          "type": "address"
        }
      ],
      "name": "allowance",
      "outputs": [
        {
          "internalType": "uint256",
          "name": "",
          "type": "uint256"
        }
      ],
      "stateMutability": "view",
      "type": "function"
    },
    {
      "inputs": [
        {
          "internalType": "address",
          "name": "spender",
          "type": "address"
        },
        {
          "internalType": "uint256",
          "name": "value",
          "type": "uint256"
        }
      ],
      "name": "approve",
      "outputs": [
        {
          "internalType": "bool",
          "name": "",
          "type": "bool"
        }
      ],
      "stateMutability": "nonpayable",
      "type": "function"
    },
    {
      "inputs": [
        {
          "internalType": "address",
          "name": "account",
          "type": "address"
        }
      ],
      "name": "balanceOf",
      "outputs": [
        {
          "internalType": "uint256",
          "name": "",
          "type": "uint256"
        }
      ],
      "stateMutability": "view",
      "type": "function"
    },
    {
      "inputs": [
        {
          "internalType": "uint256",
          "name": "amount",
          "type": "uint256"
        }
      ],
      "name": "burn",
      "outputs": [],
      "stateMutability": "nonpayable",
      "type": "function"
    },
    {
      "inputs": [],
      "name": "decimals",
      "outputs": [
        {
          "internalType": "uint8",
          "name": "",
          "type": "uint8"
        }
      ],
      "stateMutability": "view",
      "type": "function"
    },
    {
      "inputs": [
        {
          "internalType": "address",
          "name": "to",
          "type": "address"
        },
        {
          "internalType": "uint256",
          "name": "amount",
          "type": "uint256"
        }
      ],
      "name": "mint",
      "outputs": [],
      "stateMutability": "nonpayable",
      "type": "function"
    },
    {
      "inputs": [],
      "name": "name",
      "outputs": [
        {
          "internalType": "string",
          "name": "",
          "type": "string"
        }
      ],
      "stateMutability": "view",
      "type": "function"
    },
    {
      "inputs": [],
      "name": "owner",
      "outputs": [
        {
          "internalType": "address",
          "name": "",
          "type": "address"
        }
      ],
      "stateMutability": "view",
      "type": "function"
    },
    {
      "inputs": [],
      "name": "renounceOwnership",
      "outputs": [],
      "stateMutability": "nonpayable",
      "type": "function"
    },
    {
      "inputs": [],
      "name": "symbol",
      "outputs": [
        {
          "internalType": "string",
          "name": "",
          "type": "string"
        }
      ],
      "stateMutability": "view",
      "type": "function"
    },
    {
      "inputs": [],
      "name": "totalSupply",
      "outputs": [
        {
          "internalType": "uint256",
          "name": "",
          "type": "uint256"
        }
      ],
      "stateMutability": "view",
      "type": "function"
    },
    {
      "inputs": [
        {
          "internalType": "address",
          "name": "to",
          "type": "address"
        },
        {
          "internalType": "uint256",
          "name": "value",
          "type": "uint256"
        }
      ],
      "name": "transfer",
      "outputs": [
        {
          "internalType": "bool",
          "name": "",
          "type": "bool"
        }
      ],
      "stateMutability": "nonpayable",
      "type": "function"
    },
    {
      "inputs": [
        {
          "internalType": "address",
          "name": "from",
          "type": "address"
        },
        {
          "internalType": "address",
          "name": "to",
          "type": "address"
        },
        {
          "internalType": "uint256",
          "name": "value",
          "type": "uint256"
        }
      ],
      "name": "transferFrom",
      "outputs": [
        {
          "internalType": "bool",
          "name": "",
          "type": "bool"
        }
      ],
      "stateMutability": "nonpayable",
      "type": "function"
    },
    {
      "inputs": [
        {
          "internalType": "address",
          "name": "newOwner",
          "type": "address"
        }
      ],
      "name": "transferOwnership",
      "outputs": [],
      "stateMutability": "nonpayable",
      "type": "function"
    }
  ],
  "bytecode": "0x60806040523480156200001157600080fd5b50336040518060400160405280601281526020017123b4bb329021b430b934ba3c902a37b5b2b760711b8152506040518060400160405280600381526020016223a4ab60e91b81525081600390816200006b91906200034f565b5060046200007a82826200034f565b5050506001600160a01b038116620000ad57604051631e4fbdf760e01b8152600060048201526024015b60405180910390fd5b620000b881620000e7565b50620000e133620000cc6012600a62000530565b620000db90620f424062000548565b62000139565b62000578565b600580546001600160a01b038381166001600160a01b0319831681179093556040519116919082907f8be0079c531659141344cd1fd0a4f28419497f9722a3daafe3b4186f6b6457e090600090a35050565b6001600160a01b038216620001655760405163ec442f0560e01b815260006004820152602401620000a4565b620001736000838362000177565b5050565b6001600160a01b038316620001a65780600260008282546200019a919062000562565b909155506200021a9050565b6001600160a01b03831660009081526020819052604090205481811015620001fb5760405163391434e360e21b81526001600160a01b03851660048201526024810182905260448101839052606401620000a4565b6001600160a01b03841660009081526020819052604090209082900390555b6001600160a01b038216620002385760028054829003905562000257565b6001600160a01b03821660009081526020819052604090208054820190555b816001600160a01b0316836001600160a01b03167fddf252ad1be2c89b69c2b068fc378daa952ba7f163c4a11628f55a4df523b3ef836040516200029d91815260200190565b60405180910390a3505050565b634e487b7160e01b600052604160045260246000fd5b600181811c90821680620002d557607f821691505b602082108103620002f657634e487b7160e01b600052602260045260246000fd5b50919050565b601f8211156200034a57600081815260208120601f850160051c81016020861015620003255750805b601f850160051c820191505b81811015620003465782815560010162000331565b5050505b505050565b81516001600160401b038111156200036b576200036b620002aa565b62000383816200037c8454620002c0565b84620002fc565b602080601f831160018114620003bb5760008415620003a25750858301515b600019600386901b1c1916600185901b17855562000346565b600085815260208120601f198616915b82811015620003ec57888601518255948401946001909101908401620003cb565b50858210156200040b5787850151600019600388901b60f8161c191681555b5050505050600190811b01905550565b634e487b7160e01b600052601160045260246000fd5b600181815b80851115620004725781600019048211156200045657620004566200041b565b808516156200046457918102915b93841c939080029062000436565b509250929050565b6000826200048b575060016200052a565b816200049a575060006200052a565b8160018114620004b35760028114620004be57620004de565b60019150506200052a565b60ff841115620004d257620004d26200041b565b50506001821b6200052a565b5060208310610133831016604e8410600b841016171562000503575081810a6200052a565b6200050f838362000431565b80600019048211156200052657620005266200041b565b0290505b92915050565b60006200054160ff8416836200047a565b9392505050565b80820281158282048414176200052a576200052a6200041b565b808201808211156200052a576200052a6200041b565b610a1380620005886000396000f3fe608060405234801561001057600080fd5b50600436106100f55760003560e01c806342966c681161009757806395d89b411161006657806395d89b41146101f5578063a9059cbb146101fd578063dd62ed3e14610210578063f2fde38b1461024957600080fd5b806342966c681461019657806370a08231146101a9578063715018a6146101d25780638da5cb5b146101da57600080fd5b806323b872dd116100d357806323b872dd1461014d578063313ce5671461016057806332cb6b0c1461016f57806340c10f191461018157600080fd5b806306fdde03146100fa578063095ea7b31461011857806318160ddd1461013b575b600080fd5b61010261025c565b60405161010f9190610844565b60405180910390f35b61012b6101263660046108ae565b6102ee565b604051901515815260200161010f565b6002545b60405190815260200161010f565b61012b61015b3660046108d8565b610308565b6040516012815260200161010f565b61013f6a084595161401484a00000081565b61019461018f3660046108ae565b61032c565b005b6101946101a4366004610914565b6103ed565b61013f6101b736600461092d565b6001600160a01b031660009081526020819052604090205490565b6101946103fa565b6005546040516001600160a01b03909116815260200161010f565b61010261040e565b61012b61020b3660046108ae565b61041d565b61013f61021e36600461094f565b6001600160a01b03918216600090815260016020908152604080832093909416825291909152205490565b61019461025736600461092d565b61042b565b60606003805461026b90610982565b80601f016020809104026020016040519081016040528092919081815260200182805461029790610982565b80156102e45780601f106102b9576101008083540402835291602001916102e4565b820191906000526020600020905b8154815290600101906020018083116102c757829003601f168201915b5050505050905090565b6000336102fc818585610466565b60019150505b92915050565b600033610316858285610478565b6103218585856104f7565b506001949350505050565b610334610556565b6a084595161401484a0000008161034a60025490565b61035491906109bc565b111561039c5760405162461bcd60e51b815260206004820152601260248201527145786365656473206d617820737570706c7960701b60448201526064015b60405180910390fd5b6103a68282610583565b816001600160a01b03167f3f2c9d57c068687834f0de942a9babb9e5acab57d516d3480a3c16ee165a4273826040516103e191815260200190565b60405180910390a25050565b6103f733826105bd565b50565b610402610556565b61040c60006105f3565b565b60606004805461026b90610982565b6000336102fc8185856104f7565b610433610556565b6001600160a01b03811661045d57604051631e4fbdf760e01b815260006004820152602401610393565b6103f7816105f3565b6104738383836001610645565b505050565b6001600160a01b038381166000908152600160209081526040808320938616835292905220546000198110156104f157818110156104e257604051637dc7a0d960e11b81526001600160a01b03841660048201526024810182905260448101839052606401610393565b6104f184848484036000610645565b50505050565b6001600160a01b03831661052157604051634b637e8f60e11b815260006004820152602401610393565b6001600160a01b03821661054b5760405163ec442f0560e01b815260006004820152602401610393565b61047383838361071a565b6005546001600160a01b0316331461040c5760405163118cdaa760e01b8152336004820152602401610393565b6001600160a01b0382166105ad5760405163ec442f0560e01b815260006004820152602401610393565b6105b96000838361071a565b5050565b6001600160a01b0382166105e757604051634b637e8f60e11b815260006004820152602401610393565b6105b98260008361071a565b600580546001600160a01b038381166001600160a01b0319831681179093556040519116919082907f8be0079c531659141344cd1fd0a4f28419497f9722a3daafe3b4186f6b6457e090600090a35050565b6001600160a01b03841661066f5760405163e602df0560e01b815260006004820152602401610393565b6001600160a01b03831661069957604051634a1406b160e11b815260006004820152602401610393565b6001600160a01b03808516600090815260016020908152604080832093871683529290522082905580156104f157826001600160a01b0316846001600160a01b03167f8c5be1e5ebec7d5bd14f71427d1e84f3dd0314c0f7b2291e5b200ac8c7c3b9258460405161070c91815260200190565b60405180910390a350505050565b6001600160a01b03831661074557806002600082825461073a91906109bc565b909155506107b79050565b6001600160a01b038316600090815260208190526040902054818110156107985760405163391434e360e21b81526001600160a01b03851660048201526024810182905260448101839052606401610393565b6001600160a01b03841660009081526020819052604090209082900390555b6001600160a01b0382166107d3576002805482900390556107f2565b6001600160a01b03821660009081526020819052604090208054820190555b816001600160a01b0316836001600160a01b03167fddf252ad1be2c89b69c2b068fc378daa952ba7f163c4a11628f55a4df523b3ef8360405161083791815260200190565b60405180910390a3505050565b600060208083528351808285015260005b8181101561087157858101830151858201604001528201610855565b506000604082860101526040601f19601f8301168501019250505092915050565b80356001600160a01b03811681146108a957600080fd5b919050565b600080604083850312156108c157600080fd5b6108ca83610892565b946020939093013593505050565b6000806000606084860312156108ed57600080fd5b6108f684610892565b925061090460208501610892565b9150604084013590509250925092565b60006020828403121561092657600080fd5b5035919050565b60006020828403121561093f57600080fd5b61094882610892565b9392505050565b6000806040838503121561096257600080fd5b61096b83610892565b915061097960208401610892565b90509250929050565b600181811c9082168061099657607f821691505b6020821081036109b657634e487b7160e01b600052602260045260246000fd5b50919050565b8082018082111561030257634e487b7160e01b600052601160045260246000fdfea2646970667358221220bae1ec6fcb4b5368546e593cdad77b79dce12bc9c734e83e5e50bdca60f1aa1564736f6c63430008140033",
  "linkReferences": {},
  "deployedLinkReferences": {}
}