{
  "_format": "hh-sol-artifact-1",
  "contractName": "DonationContract",
  "sourceName": "contracts/DonationContract.sol",
  "abi": [
    {
      "anonymous": false,
      "inputs": [
        {
          "indexed": true,
          "internalType": "uint256",
          "name": "id",
          "type": "uint256"
        },
        {
          "indexed": true,
          "internalType": "address",
          "name": "owner",
          "type": "address"
        },
        {
          "indexed": false,
          "internalType": "string",
          "name": "title",
          "type": "string"
        },
        {
          "indexed": false,
          "internalType": "uint256",
          "name": "targetAmount",
          "type": "uint256"
        }
      ],
      "name": "CampaignCreated",
      "type": "event"
    },
    {
      "anonymous": false,
      "inputs": [
        {
          "indexed": true,
          "internalType": "uint256",
          "name": "campaignId",
          "type": "uint256"
        },
        {
          "indexed": true,
          "internalType": "address",
          "name": "donor",
          "type": "address"
        },
        {
          "indexed": false,
          "internalType": "uint256",
          "name": "amount",
          "type": "uint256"
        }
      ],
      "name": "Donated",
      "type": "event"
    },
    {
      "anonymous": false,
      "inputs": [
        {
          "indexed": true,
          "internalType": "uint256",
          "name": "campaignId",
          "type": "uint256"
        },
        {
          "indexed": false,
          "internalType": "uint256",
          "name": "amount",
          "type": "uint256"
        }
      ],
      "name": "Withdrawn",
      "type": "event"
    },
    {
      "inputs": [],
      "name": "campaignCount",
      "outputs": [
        {
          "internalType": "uint256",
          "name": "",
          "type": "uint256"
        }
      ],
      "stateMutability": "view",
      "type": "function"
    },
    {
      "inputs": [
        {
          "internalType": "uint256",
          "name": "",
          "type": "uint256"
        }
      ],
      "name": "campaigns",
      "outputs": [
        {
          "internalType": "uint256",
          "name": "id",
          "type": "uint256"
        },
        {
          "internalType": "address",
          "name": "owner",
          "type": "address"
        },
        {
          "internalType": "string",
          "name": "title",
          "type": "string"
        },
        {
          "internalType": "string",
          "name": "description",
          "type": "string"
        },
        {
          "internalType": "uint256",
          "name": "targetAmount",
          "type": "uint256"
        },
        {
          "internalType": "uint256",
          "name": "donatedAmount",
          "type": "uint256"
        },
        {
          "internalType": "uint256",
          "name": "deadline",
          "type": "uint256"
        },
        {
          "internalType": "bool",
          "name": "completed",
          "type": "bool"
        }
      ],
      "stateMutability": "view",
      "type": "function"
    },
    {
      "inputs": [
        {
          "internalType": "string",
          "name": "_title",
          "type": "string"
        },
        {
          "internalType": "string",
          "name": "_description",
          "type": "string"
        },
        {
          "internalType": "uint256",
          "name": "_targetAmount",
          "type": "uint256"
        },
        {
          "internalType": "uint256",
          "name": "_deadline",
          "type": "uint256"
        }
      ],
      "name": "createCampaign",
      "outputs": [],
      "stateMutability": "nonpayable",
      "type": "function"
    },
    {
      "inputs": [
        {
          "internalType": "uint256",
          "name": "_campaignId",
          "type": "uint256"
        }
      ],
      "name": "donate",
      "outputs": [],
      "stateMutability": "payable",
      "type": "function"
    },
    {
      "inputs": [
        {
          "internalType": "uint256",
          "name": "",
          "type": "uint256"
        },
        {
          "internalType": "uint256",
          "name": "",
          "type": "uint256"
        }
      ],
      "name": "donations",
      "outputs": [
        {
          "internalType": "address",
          "name": "donor",
          "type": "address"
        },
        {
          "internalType": "uint256",
          "name": "amount",
          "type": "uint256"
        },
        {
          "internalType": "uint256",
          "name": "timestamp",
          "type": "uint256"
        }
      ],
      "stateMutability": "view",
      "type": "function"
    },
    {
      "inputs": [
        {
          "internalType": "uint256",
          "name": "_campaignId",
          "type": "uint256"
        }
      ],
      "name": "getCampaign",
      "outputs": [
        {
          "components": [
            {
              "internalType": "uint256",
              "name": "id",
              "type": "uint256"
            },
            {
              "internalType": "address",
              "name": "owner",
              "type": "address"
            },
            {
              "internalType": "string",
              "name": "title",
              "type": "string"
            },
            {
              "internalType": "string",
              "name": "description",
              "type": "string"
            },
            {
              "internalType": "uint256",
              "name": "targetAmount",
              "type": "uint256"
            },
            {
              "internalType": "uint256",
              "name": "donatedAmount",
              "type": "uint256"
            },
            {
              "internalType": "uint256",
              "name": "deadline",
              "type": "uint256"
            },
            {
              "internalType": "bool",
              "name": "completed",
              "type": "bool"
            }
          ],
          "internalType": "struct DonationContract.Campaign",
          "name": "",
          "type": "tuple"
        }
      ],
      "stateMutability": "view",
      "type": "function"
    },
    {
      "inputs": [],
      "name": "getCampaigns",
      "outputs": [
        {
          "components": [
            {
              "internalType": "uint256",
              "name": "id",
              "type": "uint256"
            },
            {
              "internalType": "address",
              "name": "owner",
              "type": "address"
            },
            {
              "internalType": "string",
              "name": "title",
              "type": "string"
            },
            {
              "internalType": "string",
              "name": "description",
              "type": "string"
            },
            {
              "internalType": "uint256",
              "name": "targetAmount",
              "type": "uint256"
            },
            {
              "internalType": "uint256",
              "name": "donatedAmount",
              "type": "uint256"
            },
            {
              "internalType": "uint256",
              "name": "deadline",
              "type": "uint256"
            },
            {
              "internalType": "bool",
              "name": "completed",
              "type": "bool"
            }
          ],
          "internalType": "struct DonationContract.Campaign[]",
          "name": "",
          "type": "tuple[]"
        }
      ],
      "stateMutability": "view",
      "type": "function"
    },
    {
      "inputs": [],
      "name": "getContractBalance",
      "outputs": [
        {
          "internalType": "uint256",
          "name": "",
          "type": "uint256"
        }
      ],
      "stateMutability": "view",
      "type": "function"
    },
    {
      "inputs": [
        {
          "internalType": "uint256",
          "name": "_campaignId",
          "type": "uint256"
        }
      ],
      "name": "getDonations",
      "outputs": [
        {
          "components": [
            {
              "internalType": "address",
              "name": "donor",
              "type": "address"
            },
            {
              "internalType": "uint256",
              "name": "amount",
              "type": "uint256"
            },
            {
              "internalType": "uint256",
              "name": "timestamp",
              "type": "uint256"
            }
          ],
          "internalType": "struct DonationContract.Donation[]",
          "name": "",
          "type": "tuple[]"
        }
      ],
      "stateMutability": "view",
      "type": "function"
    },
    {
      "inputs": [
        {
          "internalType": "uint256",
          "name": "_campaignId",
          "type": "uint256"
        }
      ],
      "name": "withdrawFunds",
      "outputs": [],
      "stateMutability": "nonpayable",
      "type": "function"
    }
  ],
  "bytecode": "0x608060405234801561001057600080fd5b506113a1806100206000396000f3fe6080604052600436106100915760003560e01c80636f9fb98a116100595780636f9fb98a146101945780637274e30d146101b1578063a318f269146101c7578063a6b03633146101e7578063f14faf6f1461020957600080fd5b8063141961bc14610096578063155dd5ee146100d357806348f7b12e146100f55780635598f8cc1461013a578063596d9ce214610167575b600080fd5b3480156100a257600080fd5b506100b66100b1366004610e33565b61021c565b6040516100ca989796959493929190610e92565b60405180910390f35b3480156100df57600080fd5b506100f36100ee366004610e33565b61037c565b005b34801561010157600080fd5b50610115610110366004610efb565b61059a565b604080516001600160a01b0390941684526020840192909252908201526060016100ca565b34801561014657600080fd5b5061015a610155366004610e33565b6105e6565b6040516100ca9190610fa0565b34801561017357600080fd5b50610187610182366004610e33565b610780565b6040516100ca9190610fba565b3480156101a057600080fd5b50475b6040519081526020016100ca565b3480156101bd57600080fd5b506101a360005481565b3480156101d357600080fd5b506100f36101e23660046110bf565b610815565b3480156101f357600080fd5b506101fc610a0e565b6040516100ca9190611133565b6100f3610217366004610e33565b610c40565b60016020819052600091825260409091208054918101546002820180546001600160a01b03909216929161024f90611195565b80601f016020809104026020016040519081016040528092919081815260200182805461027b90611195565b80156102c85780601f1061029d576101008083540402835291602001916102c8565b820191906000526020600020905b8154815290600101906020018083116102ab57829003601f168201915b5050505050908060030180546102dd90611195565b80601f016020809104026020016040519081016040528092919081815260200182805461030990611195565b80156103565780601f1061032b57610100808354040283529160200191610356565b820191906000526020600020905b81548152906001019060200180831161033957829003601f168201915b505050506004830154600584015460068501546007909501549394919390925060ff1688565b600081815260016020526040812080549091036103d55760405162461bcd60e51b815260206004820152601260248201527110d85b5c185a59db881b9bdd08199bdd5b9960721b60448201526064015b60405180910390fd5b60018101546001600160a01b031633146104265760405162461bcd60e51b81526020600482015260126024820152712737ba1031b0b6b830b4b3b71037bbb732b960711b60448201526064016103cc565b600781015460ff161561046f5760405162461bcd60e51b815260206004820152601160248201527020b63932b0b23c903bb4ba34323930bbb760791b60448201526064016103cc565b60008160050154116104ae5760405162461bcd60e51b81526020600482015260086024820152674e6f2066756e647360c01b60448201526064016103cc565b600581015460078201805460ff191660019081179091558201546040516000916001600160a01b03169083908381818185875af1925050503d8060008114610512576040519150601f19603f3d011682016040523d82523d6000602084013e610517565b606091505b505090508061055a5760405162461bcd60e51b815260206004820152600f60248201526e151c985b9cd9995c8819985a5b1959608a1b60448201526064016103cc565b837f0c875c8d391179c5cf7ad8303d268efd50b8beb78b671f85cd54bfb91eb8ef408360405161058c91815260200190565b60405180910390a250505050565b600260205281600052604060002081815481106105b657600080fd5b60009182526020909120600390910201805460018201546002909201546001600160a01b03909116935090915083565b6105ee610de3565b60008281526001602081815260409283902083516101008101855281548152928101546001600160a01b031691830191909152600281018054929391929184019161063890611195565b80601f016020809104026020016040519081016040528092919081815260200182805461066490611195565b80156106b15780601f10610686576101008083540402835291602001916106b1565b820191906000526020600020905b81548152906001019060200180831161069457829003601f168201915b505050505081526020016003820180546106ca90611195565b80601f01602080910402602001604051908101604052809291908181526020018280546106f690611195565b80156107435780601f1061071857610100808354040283529160200191610743565b820191906000526020600020905b81548152906001019060200180831161072657829003601f168201915b505050918352505060048201546020820152600582015460408201526006820154606082015260079091015460ff16151560809091015292915050565b606060026000838152602001908152602001600020805480602002602001604051908101604052809291908181526020016000905b8282101561080a576000848152602090819020604080516060810182526003860290920180546001600160a01b03168352600180820154848601526002909101549183019190915290835290920191016107b5565b505050509050919050565b60008451116108575760405162461bcd60e51b815260206004820152600e60248201526d151a5d1b19481c995c5d5a5c995960921b60448201526064016103cc565b600082116108985760405162461bcd60e51b815260206004820152600e60248201526d125b9d985b1a59081d185c99d95d60921b60448201526064016103cc565b4281116108da5760405162461bcd60e51b815260206004820152601060248201526f496e76616c696420646561646c696e6560801b60448201526064016103cc565b6000805490806108e9836111df565b90915550506040805161010081018252600080548083523360208085019182528486018a8152606086018a90526080860189905260a0860185905260c0860188905260e086018590529284526001908190529490922083518155915193820180546001600160a01b0319166001600160a01b03909516949094179093559151909190600282019061097a9082611247565b506060820151600382019061098f9082611247565b506080820151600482015560a0820151600582015560c0820151600682015560e0909101516007909101805460ff19169115159190911790556000546040513391907f825fb10f7650ed27414d6f86acdf7d5946927d9b25001f045f1a2435deec02fe90610a009088908790611307565b60405180910390a350505050565b60606000805467ffffffffffffffff811115610a2c57610a2c61101c565b604051908082528060200260200182016040528015610a6557816020015b610a52610de3565b815260200190600190039081610a4a5790505b50905060015b6000548111610c3a5760008181526001602081815260409283902083516101008101855281548152928101546001600160a01b0316918301919091526002810180549293919291840191610abe90611195565b80601f0160208091040260200160405190810160405280929190818152602001828054610aea90611195565b8015610b375780601f10610b0c57610100808354040283529160200191610b37565b820191906000526020600020905b815481529060010190602001808311610b1a57829003601f168201915b50505050508152602001600382018054610b5090611195565b80601f0160208091040260200160405190810160405280929190818152602001828054610b7c90611195565b8015610bc95780601f10610b9e57610100808354040283529160200191610bc9565b820191906000526020600020905b815481529060010190602001808311610bac57829003601f168201915b505050918352505060048201546020820152600582015460408201526006820154606082015260079091015460ff16151560809091015282610c0c600184611329565b81518110610c1c57610c1c611342565b60200260200101819052508080610c32906111df565b915050610a6b565b50919050565b60008181526001602052604081208054909103610c945760405162461bcd60e51b815260206004820152601260248201527110d85b5c185a59db881b9bdd08199bdd5b9960721b60448201526064016103cc565b80600601544210610cd85760405162461bcd60e51b815260206004820152600e60248201526d10d85b5c185a59db88195b99195960921b60448201526064016103cc565b60003411610d1f5760405162461bcd60e51b81526020600482015260146024820152730446f6e6174696f6e206d757374206265203e20360641b60448201526064016103cc565b34816005016000828254610d339190611358565b909155505060008281526002602081815260408084208151606081018352338082523482860181815242848701908152855460018082018855968b529988902094516003909a0290940180546001600160a01b0319166001600160a01b03909a1699909917895551938801939093559051959094019490945551928352909184917f1b606d34afacd55873aba0fd274841a10c63e18455f2dffebad2fc60a36b2c83910160405180910390a35050565b6040518061010001604052806000815260200160006001600160a01b0316815260200160608152602001606081526020016000815260200160008152602001600081526020016000151581525090565b600060208284031215610e4557600080fd5b5035919050565b6000815180845260005b81811015610e7257602081850181015186830182015201610e56565b506000602082860101526020601f19601f83011685010191505092915050565b8881526001600160a01b038816602082015261010060408201819052600090610ebd8382018a610e4c565b90508281036060840152610ed18189610e4c565b9150508560808301528460a08301528360c083015282151560e08301529998505050505050505050565b60008060408385031215610f0e57600080fd5b50508035926020909101359150565b60006101008251845260018060a01b0360208401511660208501526040830151816040860152610f4f82860182610e4c565b91505060608301518482036060860152610f698282610e4c565b9150506080830151608085015260a083015160a085015260c083015160c085015260e0830151151560e08501528091505092915050565b602081526000610fb36020830184610f1d565b9392505050565b602080825282518282018190526000919060409081850190868401855b8281101561100f57815180516001600160a01b0316855286810151878601528501518585015260609093019290850190600101610fd7565b5091979650505050505050565b634e487b7160e01b600052604160045260246000fd5b600082601f83011261104357600080fd5b813567ffffffffffffffff8082111561105e5761105e61101c565b604051601f8301601f19908116603f011681019082821181831017156110865761108661101c565b8160405283815286602085880101111561109f57600080fd5b836020870160208301376000602085830101528094505050505092915050565b600080600080608085870312156110d557600080fd5b843567ffffffffffffffff808211156110ed57600080fd5b6110f988838901611032565b9550602087013591508082111561110f57600080fd5b5061111c87828801611032565b949794965050505060408301359260600135919050565b6000602080830181845280855180835260408601915060408160051b870101925083870160005b8281101561118857603f19888603018452611176858351610f1d565b9450928501929085019060010161115a565b5092979650505050505050565b600181811c908216806111a957607f821691505b602082108103610c3a57634e487b7160e01b600052602260045260246000fd5b634e487b7160e01b600052601160045260246000fd5b6000600182016111f1576111f16111c9565b5060010190565b601f82111561124257600081815260208120601f850160051c8101602086101561121f5750805b601f850160051c820191505b8181101561123e5782815560010161122b565b5050505b505050565b815167ffffffffffffffff8111156112615761126161101c565b6112758161126f8454611195565b846111f8565b602080601f8311600181146112aa57600084156112925750858301515b600019600386901b1c1916600185901b17855561123e565b600085815260208120601f198616915b828110156112d9578886015182559484019460019091019084016112ba565b50858210156112f75787850151600019600388901b60f8161c191681555b5050505050600190811b01905550565b60408152600061131a6040830185610e4c565b90508260208301529392505050565b8181038181111561133c5761133c6111c9565b92915050565b634e487b7160e01b600052603260045260246000fd5b8082018082111561133c5761133c6111c956fea2646970667358221220b8a720c06c013dd25eeb214ae185edf0732ca2bcfd3a56298d5aa618df034c6f64736f6c63430008140033",
  "linkReferences": {},
  "deployedLinkReferences": {}
}