{
  "_format": "hh-sol-artifact-1",
  "contractName": "TransparencyContract",
  "sourceName": "contracts/TransparencyContract.sol",
  "abi": [
    {
      "anonymous": false,
      "inputs": [
        {
          "indexed": true,
          "internalType": "uint256",
          "name": "campaignId",
          "type": "uint256"
        },
        {
          "indexed": true,
          "internalType": "address",
          "name": "donor",
          "type": "address"
        },
        {
          "indexed": false,
          "internalType": "uint256",
          "name": "amount",
          "type": "uint256"
        },
        {
          "indexed": false,
          "internalType": "uint256",
          "name": "timestamp",
          "type": "uint256"
        }
      ],
      "name": "DonationReceived",
      "type": "event"
    },
    {
      "anonymous": false,
      "inputs": [
        {
          "indexed": true,
          "internalType": "uint256",
          "name": "campaignId",
          "type": "uint256"
        },
        {
          "indexed": true,
          "internalType": "address",
          "name": "charity",
          "type": "address"
        },
        {
          "indexed": false,
          "internalType": "uint256",
          "name": "amount",
          "type": "uint256"
        },
        {
          "indexed": false,
          "internalType": "uint256",
          "name": "timestamp",
          "type": "uint256"
        }
      ],
      "name": "FundsReleased",
      "type": "event"
    },
    {
      "anonymous": false,
      "inputs": [
        {
          "indexed": true,
          "internalType": "uint256",
          "name": "campaignId",
          "type": "uint256"
        },
        {
          "indexed": true,
          "internalType": "address",
          "name": "donor",
          "type": "address"
        },
        {
          "indexed": false,
          "internalType": "uint256",
          "name": "amount",
          "type": "uint256"
        },
        {
          "indexed": false,
          "internalType": "uint256",
          "name": "timestamp",
          "type": "uint256"
        }
      ],
      "name": "RefundIssued",
      "type": "event"
    },
    {
      "inputs": [
        {
          "internalType": "uint256",
          "name": "",
          "type": "uint256"
        }
      ],
      "name": "donationLogs",
      "outputs": [
        {
          "internalType": "uint256",
          "name": "campaignId",
          "type": "uint256"
        },
        {
          "internalType": "address",
          "name": "donor",
          "type": "address"
        },
        {
          "internalType": "uint256",
          "name": "amount",
          "type": "uint256"
        },
        {
          "internalType": "uint256",
          "name": "timestamp",
          "type": "uint256"
        }
      ],
      "stateMutability": "view",
      "type": "function"
    },
    {
      "inputs": [],
      "name": "getDonationCount",
      "outputs": [
        {
          "internalType": "uint256",
          "name": "",
          "type": "uint256"
        }
      ],
      "stateMutability": "view",
      "type": "function"
    },
    {
      "inputs": [],
      "name": "getDonationLogs",
      "outputs": [
        {
          "components": [
            {
              "internalType": "uint256",
              "name": "campaignId",
              "type": "uint256"
            },
            {
              "internalType": "address",
              "name": "donor",
              "type": "address"
            },
            {
              "internalType": "uint256",
              "name": "amount",
              "type": "uint256"
            },
            {
              "internalType": "uint256",
              "name": "timestamp",
              "type": "uint256"
            }
          ],
          "internalType": "struct TransparencyContract.DonationRecord[]",
          "name": "",
          "type": "tuple[]"
        }
      ],
      "stateMutability": "view",
      "type": "function"
    },
    {
      "inputs": [],
      "name": "getRefundLogs",
      "outputs": [
        {
          "components": [
            {
              "internalType": "uint256",
              "name": "campaignId",
              "type": "uint256"
            },
            {
              "internalType": "address",
              "name": "donor",
              "type": "address"
            },
            {
              "internalType": "uint256",
              "name": "amount",
              "type": "uint256"
            },
            {
              "internalType": "uint256",
              "name": "timestamp",
              "type": "uint256"
            }
          ],
          "internalType": "struct TransparencyContract.RefundRecord[]",
          "name": "",
          "type": "tuple[]"
        }
      ],
      "stateMutability": "view",
      "type": "function"
    },
    {
      "inputs": [],
      "name": "getReleaseLogs",
      "outputs": [
        {
          "components": [
            {
              "internalType": "uint256",
              "name": "campaignId",
              "type": "uint256"
            },
            {
              "internalType": "address",
              "name": "charity",
              "type": "address"
            },
            {
              "internalType": "uint256",
              "name": "amount",
              "type": "uint256"
            },
            {
              "internalType": "uint256",
              "name": "timestamp",
              "type": "uint256"
            }
          ],
          "internalType": "struct TransparencyContract.ReleaseRecord[]",
          "name": "",
          "type": "tuple[]"
        }
      ],
      "stateMutability": "view",
      "type": "function"
    },
    {
      "inputs": [
        {
          "internalType": "uint256",
          "name": "campaignId",
          "type": "uint256"
        },
        {
          "internalType": "address",
          "name": "donor",
          "type": "address"
        },
        {
          "internalType": "uint256",
          "name": "amount",
          "type": "uint256"
        }
      ],
      "name": "logDonation",
      "outputs": [],
      "stateMutability": "nonpayable",
      "type": "function"
    },
    {
      "inputs": [
        {
          "internalType": "uint256",
          "name": "campaignId",
          "type": "uint256"
        },
        {
          "internalType": "address",
          "name": "donor",
          "type": "address"
        },
        {
          "internalType": "uint256",
          "name": "amount",
          "type": "uint256"
        }
      ],
      "name": "logRefund",
      "outputs": [],
      "stateMutability": "nonpayable",
      "type": "function"
    },
    {
      "inputs": [
        {
          "internalType": "uint256",
          "name": "campaignId",
          "type": "uint256"
        },
        {
          "internalType": "address",
          "name": "charity",
          "type": "address"
        },
        {
          "internalType": "uint256",
          "name": "amount",
          "type": "uint256"
        }
      ],
      "name": "logRelease",
      "outputs": [],
      "stateMutability": "nonpayable",
      "type": "function"
    },
    {
      "inputs": [
        {
          "internalType": "uint256",
          "name": "",
          "type": "uint256"
        }
      ],
      "name": "refundLogs",
      "outputs": [
        {
          "internalType": "uint256",
          "name": "campaignId",
          "type": "uint256"
        },
        {
          "internalType": "address",
          "name": "donor",
          "type": "address"
        },
        {
          "internalType": "uint256",
          "name": "amount",
          "type": "uint256"
        },
        {
          "internalType": "uint256",
          "name": "timestamp",
          "type": "uint256"
        }
      ],
      "stateMutability": "view",
      "type": "function"
    },
    {
      "inputs": [
        {
          "internalType": "uint256",
          "name": "",
          "type": "uint256"
        }
      ],
      "name": "releaseLogs",
      "outputs": [
        {
          "internalType": "uint256",
          "name": "campaignId",
          "type": "uint256"
        },
        {
          "internalType": "address",
          "name": "charity",
          "type": "address"
        },
        {
          "internalType": "uint256",
          "name": "amount",
          "type": "uint256"
        },
        {
          "internalType": "uint256",
          "name": "timestamp",
          "type": "uint256"
        }
      ],
      "stateMutability": "view",
      "type": "function"
    }
  ],
  "bytecode": "0x608060405234801561001057600080fd5b50610893806100206000396000f3fe608060405234801561001057600080fd5b506004361061009e5760003560e01c8063b8892bbc11610066578063b8892bbc14610113578063d89750631461014e578063e55a62a814610161578063e91de63914610172578063fb0d34271461018557600080fd5b806321cfdc54146100a357806349829a01146100c15780636f2331ec146100d65780638bb3af91146100eb57806390e08b49146100fe575b600080fd5b6100ab610198565b6040516100b8919061072e565b60405180910390f35b6100d46100cf36600461077c565b610222565b005b6100de610350565b6040516100b891906107c0565b6100d46100f936600461077c565b6103d0565b6101066104f7565b6040516100b89190610802565b610126610121366004610844565b610577565b604080519485526001600160a01b0390931660208501529183015260608201526080016100b8565b61012661015c366004610844565b6105ba565b6000546040519081526020016100b8565b6100d461018036600461077c565b6105ca565b610126610193366004610844565b6106f2565b60606001805480602002602001604051908101604052809291908181526020016000905b828210156102195760008481526020908190206040805160808101825260048602909201805483526001808201546001600160a01b03168486015260028201549284019290925260030154606083015290835290920191016101bc565b50505050905090565b604080516080810182528481526001600160a01b03848116602080840182815284860187815242606087018181526000805460018101825590805297517f290decd9548b62a8d60345a988386fc84ba6bc95484008f6362f93160ef3e56360049099029889015592517f290decd9548b62a8d60345a988386fc84ba6bc95484008f6362f93160ef3e564880180546001600160a01b0319169190971617909555517f290decd9548b62a8d60345a988386fc84ba6bc95484008f6362f93160ef3e565860155517f290decd9548b62a8d60345a988386fc84ba6bc95484008f6362f93160ef3e566909401939093558351858152928301919091529185917f3dbea1b4ce5f95137fdcac9b1d685825c3d70ace830df1ca5a181d3887add41091015b60405180910390a3505050565b6060600080548060200260200160405190810160405280929190818152602001600090828210156102195760008481526020908190206040805160808101825260048602909201805483526001808201546001600160a01b03168486015260028201549284019290925260030154606083015290835290920191016101bc565b604080516080810182528481526001600160a01b038481166020808401828152848601878152426060870181815260018054808201825560009190915297517fb10e2d527612073b26eecdfd717e6a320cf44b4afac2b0732d9fcbe2b7fa0cf660049099029889015592517fb10e2d527612073b26eecdfd717e6a320cf44b4afac2b0732d9fcbe2b7fa0cf7880180546001600160a01b0319169190971617909555517fb10e2d527612073b26eecdfd717e6a320cf44b4afac2b0732d9fcbe2b7fa0cf8860155517fb10e2d527612073b26eecdfd717e6a320cf44b4afac2b0732d9fcbe2b7fa0cf9909401939093558351858152928301919091529185917f93e901cc5aea20ea9655887d9290a3215a5b3999c024812f4e4b749f7534349c9101610343565b6060600280548060200260200160405190810160405280929190818152602001600090828210156102195760008481526020908190206040805160808101825260048602909201805483526001808201546001600160a01b03168486015260028201549284019290925260030154606083015290835290920191016101bc565b6000818154811061058757600080fd5b600091825260209091206004909102018054600182015460028301546003909301549193506001600160a01b0316919084565b6001818154811061058757600080fd5b604080516080810182528481526001600160a01b03848116602080840182815284860187815242606087018181526002805460018101825560009190915297517f405787fa12a823e0f2b7631cc41b3ba8828b3321ca811111fa75cd3aa3bb5ace60049099029889015592517f405787fa12a823e0f2b7631cc41b3ba8828b3321ca811111fa75cd3aa3bb5acf880180546001600160a01b0319169190971617909555517f405787fa12a823e0f2b7631cc41b3ba8828b3321ca811111fa75cd3aa3bb5ad0860155517f405787fa12a823e0f2b7631cc41b3ba8828b3321ca811111fa75cd3aa3bb5ad1909401939093558351858152928301919091529185917f275893a421a5df15c4da79585c78852a6bbf95b9064470c3d6a5636240274b879101610343565b6002818154811061058757600080fd5b805182526020808201516001600160a01b03169083015260408082015190830152606090810151910152565b6020808252825182820181905260009190848201906040850190845b818110156107705761075d838551610702565b928401926080929092019160010161074a565b50909695505050505050565b60008060006060848603121561079157600080fd5b8335925060208401356001600160a01b03811681146107af57600080fd5b929592945050506040919091013590565b6020808252825182820181905260009190848201906040850190845b81811015610770576107ef838551610702565b92840192608092909201916001016107dc565b6020808252825182820181905260009190848201906040850190845b8181101561077057610831838551610702565b928401926080929092019160010161081e565b60006020828403121561085657600080fd5b503591905056fea26469706673582212206fa44c69b8803d6ed4c728d3b683078f2a4f724525bc3dacf4bfdef4d852436e64736f6c63430008140033",
  "linkReferences": {},
  "deployedLinkReferences": {}
}